{
  "_format": "hh-sol-artifact-1",
  "contractName": "MockERC20",
  "sourceName": "contracts/mocks/MockERC20.sol",
  "abi": [
    {
      "inputs": [
        {
          "internalType": "string",
          "name": "name",
          "type": "string"
        },
        {
          "internalType": "string",
          "name": "symbol",
          "type": "string"
        },
        {
          "internalType": "uint8",
          "name": "decimals_",
          "type": "uint8"
        }
      ],
      "stateMutability": "nonpayable",
      "type": "constructor"
    },
    {
      "inputs": [
        {
          "internalType": "address",
          "name": "spender",
          "type": "address"
        },
        {
          "internalType": "uint256",
          "name": "allowance",
          "type": "uint256"
        },
        {
          "internalType": "uint256",
          "name": "needed",
          "type": "uint256"
        }
      ],
      "name": "ERC20InsufficientAllowance",
      "type": "error"
    },
    {
      "inputs": [
        {
          "internalType": "address",
          "name": "sender",
          "type": "address"
        },
        {
          "internalType": "uint256",
          "name": "balance",
          "type": "uint256"
        },
        {
          "internalType": "uint256",
          "name": "needed",
          "type": "uint256"
        }
      ],
      "name": "ERC20InsufficientBalance",
      "type": "error"
    },
    {
      "inputs": [
        {
          "internalType": "address",
          "name": "approver",
          "type": "address"
        }
      ],
      "name": "ERC20InvalidApprover",
      "type": "error"
    },
    {
      "inputs": [
        {
          "internalType": "address",
          "name": "receiver",
          "type": "address"
        }
      ],
      "name": "ERC20InvalidReceiver",
      "type": "error"
    },
    {
      "inputs": [
        {
          "internalType": "address",
          "name": "sender",
          "type": "address"
        }
      ],
      "name": "ERC20InvalidSender",
      "type": "error"
    },
    {
      "inputs": [
        {
          "internalType": "address",
          "name": "spender",
          "type": "address"
        }
      ],
      "name": "ERC20InvalidSpender",
      "type": "error"
    },
    {
      "anonymous": false,
      "inputs": [
        {
          "indexed": true,
          "internalType": "address",
          "name": "owner",
          "type": "address"
        },
        {
          "indexed": true,
          "internalType": "address",
          "name": "spender",
          "type": "address"
        },
        {
          "indexed": false,
          "internalType": "uint256",
          "name": "value",
          "type": "uint256"
        }
      ],
      "name": "Approval",
      "type": "event"
    },
    {
      "anonymous": false,
      "inputs": [
        {
          "indexed": true,
          "internalType": "address",
          "name": "from",
          "type": "address"
        },
        {
          "indexed": true,
          "internalType": "address",
          "name": "to",
          "type": "address"
        },
        {
          "indexed": false,
          "internalType": "uint256",
          "name": "value",
          "type": "uint256"
        }
      ],
      "name": "Transfer",
      "type": "event"
    },
    {
      "inputs": [
        {
          "internalType": "address",
          "name": "owner",
          "type": "address"
        },
        {
          "internalType": "address",
          "name": "spender",
          "type": "address"
        }
      ],
      "name": "allowance",
      "outputs": [
        {
          "internalType": "uint256",
          "name": "",
          "type": "uint256"
        }
      ],
      "stateMutability": "view",
      "type": "function"
    },
    {
      "inputs": [
        {
          "internalType": "address",
          "name": "spender",
          "type": "address"
        },
        {
          "internalType": "uint256",
          "name": "value",
          "type": "uint256"
        }
      ],
      "name": "approve",
      "outputs": [
        {
          "internalType": "bool",
          "name": "",
          "type": "bool"
        }
      ],
      "stateMutability": "nonpayable",
      "type": "function"
    },
    {
      "inputs": [
        {
          "internalType": "address",
          "name": "account",
          "type": "address"
        }
      ],
      "name": "balanceOf",
      "outputs": [
        {
          "internalType": "uint256",
          "name": "",
          "type": "uint256"
        }
      ],
      "stateMutability": "view",
      "type": "function"
    },
    {
      "inputs": [
        {
          "internalType": "uint256",
          "name": "amount",
          "type": "uint256"
        }
      ],
      "name": "burn",
      "outputs": [],
      "stateMutability": "nonpayable",
      "type": "function"
    },
    {
      "inputs": [],
      "name": "decimals",
      "outputs": [
        {
          "internalType": "uint8",
          "name": "",
          "type": "uint8"
        }
      ],
      "stateMutability": "view",
      "type": "function"
    },
    {
      "inputs": [
        {
          "internalType": "address",
          "name": "to",
          "type": "address"
        },
        {
          "internalType": "uint256",
          "name": "amount",
          "type": "uint256"
        }
      ],
      "name": "mint",
      "outputs": [],
      "stateMutability": "nonpayable",
      "type": "function"
    },
    {
      "inputs": [],
      "name": "name",
      "outputs": [
        {
          "internalType": "string",
          "name": "",
          "type": "string"
        }
      ],
      "stateMutability": "view",
      "type": "function"
    },
    {
      "inputs": [],
      "name": "symbol",
      "outputs": [
        {
          "internalType": "string",
          "name": "",
          "type": "string"
        }
      ],
      "stateMutability": "view",
      "type": "function"
    },
    {
      "inputs": [],
      "name": "totalSupply",
      "outputs": [
        {
          "internalType": "uint256",
          "name": "",
          "type": "uint256"
        }
      ],
      "stateMutability": "view",
      "type": "function"
    },
    {
      "inputs": [
        {
          "internalType": "address",
          "name": "to",
          "type": "address"
        },
        {
          "internalType": "uint256",
          "name": "value",
          "type": "uint256"
        }
      ],
      "name": "transfer",
      "outputs": [
        {
          "internalType": "bool",
          "name": "",
          "type": "bool"
        }
      ],
      "stateMutability": "nonpayable",
      "type": "function"
    },
    {
      "inputs": [
        {
          "internalType": "address",
          "name": "from",
          "type": "address"
        },
        {
          "internalType": "address",
          "name": "to",
          "type": "address"
        },
        {
          "internalType": "uint256",
          "name": "value",
          "type": "uint256"
        }
      ],
      "name": "transferFrom",
      "outputs": [
        {
          "internalType": "bool",
          "name": "",
          "type": "bool"
        }
      ],
      "stateMutability": "nonpayable",
      "type": "function"
    }
  ],
  "bytecode": "0x6080604052346200033b5762000bf1803803806200001d8162000340565b92833981016060828203126200033b5781516001600160401b03908181116200033b57826200004e91850162000366565b90602092838501518281116200033b576040916200006e91870162000366565b9401519360ff85168095036200033b5782518281116200023b576003918254916001958684811c9416801562000330575b888510146200031a578190601f94858111620002c4575b5088908583116001146200025d5760009262000251575b505060001982861b1c191690861b1783555b80519384116200023b5760049586548681811c9116801562000230575b828210146200021b57838111620001d0575b508092851160011462000162575093839491849260009562000156575b50501b92600019911b1c19161790555b60ff1960055416176005556040516108189081620003d98239f35b0151935038806200012b565b92919084601f1981168860005285600020956000905b89838310620001b557505050106200019a575b50505050811b0190556200013b565b01519060f884600019921b161c19169055388080806200018b565b85870151895590970196948501948893509081019062000178565b87600052816000208480880160051c82019284891062000211575b0160051c019087905b828110620002045750506200010e565b60008155018790620001f4565b92508192620001eb565b602288634e487b7160e01b6000525260246000fd5b90607f1690620000fc565b634e487b7160e01b600052604160045260246000fd5b015190503880620000cd565b90889350601f19831691876000528a6000209260005b8c828210620002ad575050841162000294575b505050811b018355620000df565b015160001983881b60f8161c1916905538808062000286565b8385015186558c9790950194938401930162000273565b90915085600052886000208580850160051c8201928b861062000310575b918a91869594930160051c01915b82811062000300575050620000b6565b600081558594508a9101620002f0565b92508192620002e2565b634e487b7160e01b600052602260045260246000fd5b93607f16936200009f565b600080fd5b6040519190601f01601f191682016001600160401b038111838210176200023b57604052565b919080601f840112156200033b5782516001600160401b0381116200023b576020906200039c601f8201601f1916830162000340565b928184528282870101116200033b5760005b818110620003c457508260009394955001015290565b8581018301518482018401528201620003ae56fe608060408181526004918236101561001657600080fd5b600092833560e01c91826306fdde03146105b257508163095ea7b31461050857816318160ddd146104e957816323b872dd146103f2578163313ce567146103d057816340c10f191461032457816342966c681461026f57816370a082311461023857816395d89b411461011957508063a9059cbb146100e95763dd62ed3e1461009e57600080fd5b346100e557806003193601126100e557806020926100ba6106d3565b6100c26106ee565b6001600160a01b0391821683526001865283832091168252845220549051908152f35b5080fd5b50346100e557806003193601126100e5576020906101126101086106d3565b6024359033610704565b5160018152f35b8383346100e557816003193601126100e557805190828454600181811c9080831692831561022e575b602093848410811461021b578388529081156101ff57506001146101aa575b505050829003601f01601f191682019267ffffffffffffffff841183851017610197575082918261019392528261068a565b0390f35b634e487b7160e01b815260418552602490fd5b8787529192508591837f8a35acfbc15ff81a39ae7d344fd709f28e8600b4aa8c65c6b64bfe7fe36bd19b5b8385106101eb5750505050830101858080610161565b8054888601830152930192849082016101d5565b60ff1916878501525050151560051b8401019050858080610161565b634e487b7160e01b895260228a52602489fd5b91607f1691610142565b5050346100e55760203660031901126100e55760209181906001600160a01b036102606106d3565b16815280845220549051908152f35b8383346100e55760203660031901126100e557823590331561030e573383528260205280832054938285106102e357508183943385528460205203818420558160025403600255519081527fddf252ad1be2c89b69c2b068fc378daa952ba7f163c4a11628f55a4df523b3ef60203392a380f35b905163391434e360e21b81523391810191825260208201859052604082018390529081906060010390fd5b51634b637e8f60e11b8152808401839052602490fd5b919050346103cc57806003193601126103cc5761033f6106d3565b6001600160a01b031691602435919083156103b757600254908382018092116103a4575084927fddf252ad1be2c89b69c2b068fc378daa952ba7f163c4a11628f55a4df523b3ef9260209260025585855284835280852082815401905551908152a380f35b634e487b7160e01b865260119052602485fd5b84602492519163ec442f0560e01b8352820152fd5b8280fd5b5050346100e557816003193601126100e55760209060ff600554169051908152f35b905082346104e65760603660031901126104e65761040e6106d3565b6104166106ee565b916044359360018060a01b038316808352600160205286832033845260205286832054916000198310610452575b602088610112898989610704565b8683106104ba5781156104a357331561048c5750825260016020908152868320338452815291869020908590039055829061011287610444565b8751634a1406b160e11b8152908101849052602490fd5b875163e602df0560e01b8152908101849052602490fd5b8751637dc7a0d960e11b8152339181019182526020820193909352604081018790528291506060010390fd5b80fd5b5050346100e557816003193601126100e5576020906002549051908152f35b9050346103cc57816003193601126103cc576105226106d3565b60243590331561059b576001600160a01b031691821561058457508083602095338152600187528181208582528752205582519081527f8c5be1e5ebec7d5bd14f71427d1e84f3dd0314c0f7b2291e5b200ac8c7c3b925843392a35160018152f35b8351634a1406b160e11b8152908101859052602490fd5b835163e602df0560e01b8152808401869052602490fd5b849084346103cc57826003193601126103cc5782600354600181811c90808316928315610680575b602093848410811461021b578388529081156101ff575060011461062a57505050829003601f01601f191682019267ffffffffffffffff841183851017610197575082918261019392528261068a565b600387529192508591837fc2575a0e9e593c00f959f8c92f12db2869c3395a3b0502d05e2516446f71f85b5b83851061066c5750505050830101858080610161565b805488860183015293019284908201610656565b91607f16916105da565b6020808252825181830181905290939260005b8281106106bf57505060409293506000838284010152601f8019910116010190565b81810186015184820160400152850161069d565b600435906001600160a01b03821682036106e957565b600080fd5b602435906001600160a01b03821682036106e957565b916001600160a01b038084169283156107c957169283156107b0576000908382528160205260408220549083821061077e575091604082827fddf252ad1be2c89b69c2b068fc378daa952ba7f163c4a11628f55a4df523b3ef958760209652828652038282205586815220818154019055604051908152a3565b60405163391434e360e21b81526001600160a01b03919091166004820152602481019190915260448101839052606490fd5b60405163ec442f0560e01b815260006004820152602490fd5b604051634b637e8f60e11b815260006004820152602490fdfea2646970667358221220e6f368be2a92f1a83459dd4fff39e1a646616ee4309f15518132b8421c9be6c464736f6c63430008140033",
  "linkReferences": {},
  "deployedLinkReferences": {}
}